:020000040800F2
:1000000000800020E51E0008211D0008271D0008B3
:100010002D1D0008331D0008391D000800000000D8
:100020000000000000000000000000003F1D00086C
:10003000451D0008000000004B1D0008511D000870
:10004000571D00085D1D0008631D0008691D00089C
:100050006F1D0008751D00087B1D0008811D00082C
:10006000871D00088D1D0008931D0008091C00084D
:10007000991D00089F1D0008A51D0008AB1D000864
:10008000B11D000800000000B71D0008BD1D0008DC
:10009000C31D0008C91D0008CF1D0008D51D00089C
:1000A000DB1D0008E11D0008E71D0008ED1D00082C
:1000B000F9190008B5030008F31D0008F51D000834
:1000C000FB1D0008011E0008071E00080D1E000889
:1000D000131E0008191E00081F1E0008251E000818
:1000E0002B1E0008311E0008371E00083D1E0008A8
:1000F000431E0008491E00084F1E000800000000B3
:1001000000000000551E0008000000005B1E0008F3
:10011000611E000800000000671E00086D1E000838
:10012000731E0008791E00087F1E0008851E000847
:100130008B1E00080000000000000000911E000857
:10014000971E00089D1E000800000000000000002F
:10015000000000000000000000000000000000009F
:10016000000000000000000000000000A31E0008C6
:10017000A91E0008000000000000000000000000B0
:1001800000000000AF1E000800000000000000009A
:10019000000000000000000000000000000000005F
:1001A0000000000000000000B51E0008BB1E000893
:1001B000C11E0008C71E0008CD1E00080000000078
:1001C00000000000D31E0008000000000000000036
:0801D000D91E0008DF1E000823
:1001E00010B5054C237833B9044B13B10448AFF371
:1001F00000800123237010BD8C010020000000004E
:100200002835000808B5034B1BB103490348AFF379
:10021000008008BD00000000900100202835000883
:10022000034613F8012B002AFBD1181A0138704736
:1002300001F0FF01102A2BDB10F0070F08D010F897
:10024000013B013A8B422DD010F0070F42B3F6D19B
:10025000F0B441EA012141EA014122F007047FF0B4
:1002600000070023F0E80256083C85EA010586EA0B
:10027000010685FA47F5A3FA87F586FA47F6A5FA47
:1002800087F68EB9EED1F0BC01F0FF0102F0070253
:1002900032B110F8013B013A83EA010313B1F8D1FE
:1002A0000020704701387047002D06BF35460338DF
:1002B000073815F0010F07D1013015F4807F02BF18
:1002C000013015F4C03F0130F0BC0138704700BF69
:1002D00080B483B000AF0346FB7197F90730002B61
:1002E0000BDBFB7903F01F02064997F907305B0926
:1002F000012000FA02F241F8232000BF0C37BD466E
:1003000080BC704700E100E080B500AF144B9B6DEE
:10031000134A43F0020393651D20FFF7D9FF114BE9
:100320001B68114A1149A1FB03139B0C93620E4BEE
:100330004FF47A72DA620C4B1B680B4A43F00403E9
:100340001360094BDB68084A43F00103D360064B96
:100350005B69054A43F00103536100BF80BD00BFE4
:1003600000100240240100200004004083DE1B43F3
:1003700080B483B000AF78600C4B1B680B4A43F02D
:10038000010313600A4B00221A6000BF084B1B6870
:100390007A689A42FAD8054B1B68044A23F0010395
:1003A000136000BF0C37BD4680BC7047000400409E
:1003B000A801002080B400AF074B1B69064A23F058
:1003C00001031361054B1B680133044A136000BF2E
:1003D000BD4680BC704700BF00040040A80100205B
:1003E00080B483B000AF0346FB71344B1B6E334ABD
:1003F00043F480431366314BDB6C304A43F0010316
:10040000D3644FF090431B684FF0904223F4402395
:1004100013604FF090431B684FF0904243F4002369
:1004200013604FF090439B684FF0904243F40023D9
:1004300093604FF090435B6A4FF0904243F070033B
:1004400053621F4B1B681F4A1F49A1FB03131B0C60
:10045000D360FB79002B25D04FF090431B684FF001
:10046000904223F4401313604FF090431B684FF009
:10047000904243F4001313604FF090439B684FF099
:10048000904243F4001393604FF090435B6A4FF047
:10049000904243F4E06353620A4B1B68094A43F0FD
:1004A00004031360074B1B68064A43F009031360FB
:1004B00000BF0C37BD4680BC704700BF0010024033
:1004C0002401002000380140C5B3A2910FB480B5CB
:1004D00096B000AF07F164033B603B1D3A68396E8C
:1004E000184601F085FF00237B650FE03A1D7B6D08
:1004F00013441A78114B9A6200BF104BDB6903F06A
:100500008003002BF9D07B6D01337B653B1D1846C2
:10051000FFF786FE02467B6D9A42E7D800BF074B85
:10052000DB6903F04003002BF9D000BF00BF583750
:10053000BD46BDE8804004B0704700BF00380140B0
:1005400080B500AF2E4B1B682D4A43F480731360B7
:100550002C4B1B682B4A43F48033136000BF294B9C
:100560001B6803F40033002BF9D0254B1B68244A89
:1005700043F008031360234B9B68224A23F4125371
:100580009360204B0022DA601E4BDB681D4A23F08B
:10059000C063D3601B4BDB681A4A43F08073D3609F
:1005A000184BDB68174A23F0F003D360154BDB6868
:1005B000144A43F4A053D360124BDB68114A43F052
:1005C0000303D3600F4B1B680E4A43F08073136024
:1005D00000BF0C4B1B6803F00073002BF9D0094BD4
:1005E0009B68084A43F00303936000BF054B9B6878
:1005F00003F00C03002BF9D001F028FB00BF80BDF5
:10060000002002400010024080B400AF034B802263
:100610009A6200BFBD4680BC704700BF000400481E
:1006200080B400AF034B80229A6100BFBD4680BCFE
:10063000704700BF0004004880B500AF054B202282
:100640009A620520FFF794FE024B20229A6100BFB8
:1006500080BD00BF0004004880B582B000AF0346F3
:10066000FB71064B40229A62FB1D0121184601F0E6
:1006700005FA00BF0837BD4680BD00BF0004004832
:1006800080B582B000AF78603960054B40229A6136
:100690003968786801F0F2F900BF0837BD4680BDBF
:1006A0000004004880B584B000AF78607B685A1CB5
:1006B0007A601B78FB7334E07B685A1C7A601B7885
:1006C000FB72FB7A1846FFF7C7FF7B685A1C7A60FB
:1006D0001B78BB72BB7A9BB203F08003BB81BB7AF1
:1006E00003F07F03BB72BB7A002B08D0BB7A19469C
:1006F0007868FFF7C5FFBB7A7A6813447B60BB89D3
:10070000002B0ED07B685A1C7A601B78BB81BB899A
:10071000FF2B02D14FF4FA73BB81BB891846FFF758
:1007200027FEFB7B5A1EFA73002BC5D100BF00BF0A
:100730001037BD4680BD90B585B000AF0446084671
:1007400011461A462346FB710346BB710B467B716B
:1007500013463B712A20FFF77FFF00233B73FB7991
:100760000233DBB27B730023BB737B790233DBB2D2
:10077000FB7307F10C0304211846FFF781FF2B20C0
:10078000FFF76AFFBB790133DBB27B733B7901333F
:10079000DBB2FB7307F10C0304211846FFF770FF6F
:1007A0002C20FFF759FF00BF1437BD4690BD000055
:1007B00080B500AFFFF728FFFFF73EFF0648FFF7C1
:1007C00071FF0648FFF76EFF0548FFF76BFFFFF765
:1007D00027FF00BF80BD00BF4C34000888340008EC
:1007E0009834000880B584B000AF0346FB800B4608
:1007F000BB8013467B80FB887F2B23D8BB889F2B35
:1008000020D8FFF701FFFB88D8B2BB88D9B2FB889C
:10081000DBB20133DAB2BB88DBB20133DBB2FFF704
:100820008AFF7B881B0A9BB2DBB23B737B88DBB2FF
:100830007B7307F10C0302211846FFF721FFFFF736
:10084000EFFE00E000BF1037BD4680BD82B090B51E
:1008500089B000AF7B630346FB800B46BB80134629
:10086000FB70FFF7D1FEFB88D8B2BB88D9B2FB88FA
:10087000DAB297F834301344DBB2013BDCB2BB8808
:10088000DAB297F835301344DBB2013BDBB22246D3
:10089000FFF751FF0023FB6143E0BA6BFB78203B7D
:1008A00097F8351001FB03F31946FB690B445B0015
:1008B00013441B887B610023BB6129E07A69BB6913
:1008C00002FA03F303F40043002B0ED0BB8F1B0A84
:1008D0009BB2DBB23B74BB8FDBB27B7407F11003BE
:1008E00002211846FFF7CCFE0FE0B7F840301B0A94
:1008F0009BB2DBB23B73B7F84030DBB27B7307F1DE
:100900000C0302211846FFF7BBFEBB690133BB6134
:1009100097F834301A46BB699342CFD3FB69013351
:10092000FB6197F835301A46FB699342B5D3FFF760
:1009300077FE00BF2437BD46BDE8904002B0704747
:1009400082B080B586B004AF3A607B610346FB801D
:100950000B46BB80FFF758FE2DE0FB883A7D134421
:100960007F2B13DD0023FB807B7D9AB2BB88134471
:10097000BB80BB887A7D13449F2B21DC3B681B78AE
:10098000202B03D13B6801333B6014E03B681A78AD
:10099000B988F8883B8C0293BB8B0193BB690093A9
:1009A0007B69FFF753FF3B7D9AB2FB881344FB80C2
:1009B0003B6801333B603B681B78002BCDD100E0E6
:1009C00000BFFFF72DFE00BF0837BD46BDE88040E1
:1009D00002B0704790B585B000AF04460846114696
:1009E0001A462346FB800346BB800B467B8013469A
:1009F0003B80FB887F2B53D8BB889F2B50D8FA882D
:100A00007B881344802B03DDFB88C3F180037B804C
:100A1000BA883B881344A02B03DDBB88C3F1A00335
:100A20003B80FFF7F1FDFB88D8B2BB88D9B2FB88C9
:100A3000DAB27B88DBB21344DBB2013BDCB2BB88A9
:100A4000DAB23B88DBB21344DBB2013BDBB22246B5
:100A5000FFF771FE3B8C1B0A9BB2DBB23B733B8CF6
:100A6000DBB27B73104B40229A613B88BB8011E064
:100A70007B88FB8008E007F10C030221184600F098
:100A8000FDFFFB88013BFB80FB88002BF3D1BB887B
:100A9000013BBB80BB88002BEAD1FFF7C1FD00E022
:100AA00000BF1437BD4690BD0004004880B584B037
:100AB00002AF0346FB80FB880093A0238022002125
:100AC0000020FFF787FF00BF0837BD4680BD90B507
:100AD00085B000AF0446084611461A462346FB80FF
:100AE0000346BB800B467B8013467B707B88C3F13B
:100AF00001039BB2FB810123BB817B881A46D20391
:100B0000D31A5B009BB27B8100233B8195E0B7F950
:100B10000E30002B0EDBB7F902309BB2013B9BB2CB
:100B20007B807B8902339BB27B81FA897B8913446A
:100B30009BB2FB81B7F908309BB201339BB23B817A
:100B4000BB8902339BB2BB81FA89BB8913449BB238
:100B5000FB817B7803F00803002B17D0FA887B8891
:100B6000D31A98B2BA883B8913449BB23A8C19467F
:100B7000FFF738FEFA883B89D31A98B2BA887B8887
:100B800013449BB23A8C1946FFF72CFE7B7803F096
:100B90000403002B17D0FA883B89134498B2BA8813
:100BA0007B8813449BB23A8C1946FFF71BFEFA88E8
:100BB0007B88134498B2BA883B8913449BB23A8C21
:100BC0001946FFF70FFE7B7803F00203002B17D0C6
:100BD000FA887B88134498B2BA883B89D31A9BB2AF
:100BE0003A8C1946FFF7FEFDFA883B89134498B208
:100BF000BA887B88D31A9BB23A8C1946FFF7F2FD6C
:100C00007B7803F00103002B17D0FA883B89D31AB5
:100C100098B2BA887B88D31A9BB23A8C1946FFF7F0
:100C2000E1FDFA887B88D31A98B2BA883B89D31A37
:100C30009BB23A8C1946FFF7D5FDB7F90820B7F9F2
:100C400002309A42FFF663AF00BF00BF1437BD46C3
:100C500090BD90B585B002AF0446084611461A46CD
:100C60002346FB800346BB800B467B8013463B80BC
:100C7000FA883B8B13449BB218B27A883B8BD31A09
:100C80009AB23B8BD31A9BB21AB2BB8BB7F9041042
:100C900000F084F9FA883B8B13449BB218B2BA88EF
:100CA0003B8813449BB2013B9BB219B27A883B8BC1
:100CB000D31A9AB23B8BD31A9BB21AB2BB8B00F0F9
:100CC0006DF9BA883B8B13449BB219B23A883B8BBF
:100CD000D31A9AB23B8BD31A9BB21AB2BB8BB7F919
:100CE000060000F011F9FA887B8813449BB2013B9F
:100CF0009BB218B2BA883B8B13449BB219B23A88A4
:100D00003B8BD31A9AB23B8BD31A9BB21AB2BB8BD2
:100D100000F0FAF8FA883B8B13449BB218B2BA88F9
:100D20003B8B13449BB219B2B7F91820BB8B0093CD
:100D30000123FFF7CCFEFA883B8B13449BB218B219
:100D4000BA883B8813449AB23B8BD31A9BB2013BBF
:100D50009BB219B2B7F91820BB8B00930823FFF799
:100D6000B6FEFA887B8813449AB23B8BD31A9BB2A7
:100D7000013B9BB218B2BA883B8B13449BB219B2A9
:100D8000B7F91820BB8B00930223FFF7A0FEFA8867
:100D90007B8813449AB23B8BD31A9BB2013B9BB224
:100DA00018B2BA883B8813449AB23B8BD31A9BB2D1
:100DB000013B9BB219B2B7F91820BB8B00930423F7
:100DC000FFF785FE00BF0C37BD4690BD90B589B0DA
:100DD00000AF0446084611461A462346FB800346E8
:100DE000BB800B467B8013463B80B7F90020B7F9E8
:100DF0000430D31A83EAE372A2EBE372B7F902106C
:100E0000B7F90630CB1A002BB8BF5B429A42CCBF71
:100E100001230023DBB27B83B7F91A30002B0BD000
:100E2000FB883B83BB88FB803B8BBB807B88FB8242
:100E30003B887B80FB8A3B80B7F90620B7F90230FC
:100E40009A420BDDFB88BB827B88FB80BB8A7B8060
:100E5000BB887B823B88BB807B8A3B807A88FB880F
:100E6000D31A9BB23B82B7F90020B7F90430D31AEA
:100E7000002BB8BF5B42FB81B7F91030DA0F134487
:100E80005B10FB83B7F90420B7F900309A4202DA0D
:100E90000123BB832DE04FF6FF73BB8329E0B7F935
:100EA0001A30002B06D0BB88F9883A8E1846FFF717
:100EB00099FC05E0FB88B9883A8E1846FFF792FC4A
:100EC000FA8BFB89D31A9BB2FB83B7F91E30002B38
:100ED00009DABA88BB8B13449BB2BB80FA8B3B8A7E
:100EE00013449BB2FB83B7F906309BB201339BB22C
:100EF000FB80B7F90620B7F902309A42CFDD00BF78
:100F000000BF2437BD4690BD90B585B002AF044602
:100F1000084611461A462346FB800346BB800B4613
:100F20007B8013463B801B4BB3F90030B7F906209A
:100F30009A422BDA184BB3F90030B7F904209A42E1
:100F400024DAB7F90420B7F902301344124AB2F98F
:100F50000020934207DD104BB3F900309AB2BB88F2
:100F6000D31A9BB27B80BA887B8813449BB2013B27
:100F70009BB21CB2B7F90620B7F90410B7F9060006
:100F80003B8800932346FFF721FF00E000BF0C37AA
:100F9000BD4690BD0E0000200C00002090B585B02D
:100FA00002AF0446084611461A462346FB80034614
:100FB000BB800B467B8013463B801B4BB3F9003054
:100FC000B7F906209A422BDA184BB3F90030B7F97B
:100FD00004209A4224DAB7F90620B7F90230134404
:100FE000114AB2F90020934207DD0F4BB3F90030EC
:100FF0009AB2FB88D31A9BB27B80FA887B88134411
:101000009BB2013B9BB21AB2B7F90440B7F9041086
:10101000B7F906003B8800932346FFF7D7FE00E0B0
:1010200000BF0C37BD4690BD0E0000200C00002014
:1010300080B584B000AF0346FB71FB7903F0030376
:10104000DAB2474B1A70474B80229A623620FFF77C
:1010500003FB434B1B78032B7AD801A252F823F0F1
:1010600071100008AD100008E91000081511000803
:101070003D4B1A783C4B5B781343DAB23A4BDB7842
:101080001343DBB2FB7307F10F0301211846FFF78F
:10109000F7FA364B80221A80354BA0221A80354B46
:1010A00002221A70344B01221A7051E02E4B5A78EA
:1010B0002D4B9B781343DAB22B4BDB781343DBB217
:1010C000BB7307F10E0301211846FFF7D9FA274B2E
:1010D000A0221A80264B80221A80264B01221A70E9
:1010E000254B02221A7033E01F4BDB787B7307F12C
:1010F0000D0301211846FFF7C3FA1C4B80221A800A
:101100001B4BA0221A801B4B02221A701A4B012281
:101110001A701DE0144B1A78134B9B781343DAB204
:10112000114BDB781343DBB23B7307F10C03012156
:101130001846FFF7A5FA0D4BA0221A800C4B80220F
:101140001A800C4B01221A700B4B02221A7000BF3E
:10115000044B80229A6100BF1037BD4680BD00BF9E
:10116000AC01002000040048080000200E00002010
:101170000C000020100000201100002080B586B077
:1011800000AF0346FB710B46BB7113467B71384BB6
:10119000B3F90030DAB2FB79D31ADAB2BB79D31AD9
:1011A000FB753320FFF758FA00233B74FB797B74FF
:1011B0000023BB74FB7DFB7400233B75BB797B75FF
:1011C00007F1100306211846FFF75AFA3620FFF7F9
:1011D00043FA0023BB750023FB737B79002B21D0DE
:1011E000BB7D002B07D1D823FB7307F10F0301212F
:1011F0001846FFF745FABB7D012B07D1D023FB73BF
:1012000007F10F0301211846FFF73AFABB7D022BC5
:1012100029D11823FB7307F10F0301211846FFF7AB
:101220002FFA20E0BB7D002B07D1C823FB7307F109
:101230000F0301211846FFF723FABB7D012B07D1CD
:10124000C023FB7307F10F0301211846FFF718FABB
:10125000BB7D022B07D10823FB7307F10F0301218C
:101260001846FFF70DFA00BF1837BD4680BD00BF16
:101270000C00002080B483B000AF0346FB7197F9E7
:101280000730002B0BDBFB7903F01F02064997F9AF
:1012900007305B09012000FA02F241F8232000BF69
:1012A0000C37BD4680BC704700E100E080B485B0DB
:1012B00000AF7860084B9A6C07497B6813438B64D6
:1012C000054B9A6C7B681340FB60FB6800BF1437CA
:1012D000BD4680BC704700BF0010024080B485B09E
:1012E00000AF7860084BDA6C07497B681343CB6426
:1012F000054BDA6C7B681340FB60FB6800BF14375A
:10130000BD4680BC704700BF0010024080B483B06F
:1013100000AF786039607B683A689A6200BF0C372A
:10132000BD4680BC704780B483B000AF7860396040
:101330007B685A693B685A407B685A6100BF0C372A
:10134000BD4680BC704780B483B000AF78607B68D6
:101350001B6843F040027B681A6000BF0C37BD4633
:1013600080BC704780B483B000AF78607B685B68F6
:1013700043F002027B685A6000BF0C37BD4680BC58
:101380007047000080B487B000AFF860B9607A6041
:10139000FB687B610D4ABB6813441B781A467B6966
:1013A00013441B6823F4804323F010030749BA68F1
:1013B0000A44127811467A690A4411467A6813433E
:1013C0000B6000BF1C37BD4680BC7047C4340008AA
:1013D00080B487B000AFF860B9607A60FB687B6169
:1013E0000C4ABB6813441B781A467B6913441B687C
:1013F00023F020020749BB680B441B7819467B6920
:101400000B4419467B6813430B6000BF1C37BD4675
:1014100080BC7047C434000880B487B000AFF86067
:10142000B9607A60FB687B610C4ABB6813441B7827
:101430001A467B6913441B6823F040020749BB68C6
:101440000B441B7819467B690B4419467B68134390
:101450000B6000BF1C37BD4680BC7047C434000819
:1014600080B487B000AFF860B9607A60FB687B61D8
:101470000C4ABB6813441B781A467B6913441B68EB
:1014800023F080020749BB680B441B7819467B692F
:101490000B4419467B6813430B6000BF1C37BD46E5
:1014A00080BC7047C434000880B487B000AFF860D7
:1014B000B9607A60FB687B610C4ABB6813441B7897
:1014C0001A467B6913441B6823F440720749BB68C2
:1014D0000B441B7819467B690B4419467B68134300
:1014E0000B6000BF1C37BD4680BC7047C434000889
:1014F00080B487B000AFF860B9607A60FB687B6148
:101500000C4ABB6813441B781A467B6913441B685A
:1015100023F440620749BB680B441B7819467B697A
:101520000B4419467B6813430B6000BF1C37BD4654
:1015300080BC7047C434000880B487B000AFF86046
:10154000B9607A60FB687B610C4ABB6813441B7806
:101550001A467B6913441B6823F440520749BB6851
:101560000B441B7819467B690B4419467B6813436F
:101570000B6000BF1C37BD4680BC7047C4340008F8
:1015800080B487B000AFF860B9607A60FB687B61B7
:101590000C4ABB6813441B781A467B6913445B688A
:1015A0001B0C1B040749BA680A44127811467A6971
:1015B0000A4411467A6813434B6000BF1C37BD468E
:1015C00080BC7047C434000880B487B000AFF860B6
:1015D000B9607A60FB687B61074ABB6813441B787B
:1015E0001A467B6913441A467B68D36000BF1C37D8
:1015F000BD4680BC704700BFC434000880B487B0CB
:1016000000AFF860B9607A60FB687B61074ABB682D
:1016100013441B781A467B6913441A467B6893600F
:1016200000BF1C37BD4680BC704700BFC4340008F3
:1016300080B487B000AFF860B9607A60FB689B0A3D
:1016400083F4801383F08003DB007B61BA687B69DD
:1016500013449B0003F1804303F502331B6823F01E
:10166000FF01BA687B6913449B0003F1804303F5D3
:1016700002337A680A431A6000BF1C37BD4680BC3B
:101680007047000080B485B000AF786039607B6837
:10169000FB600B4A3B6813441B781A46FB681344F3
:1016A0001B6807493A680A4412781146FA680A44E6
:1016B00043F00203136000BF1437BD4680BC70477F
:1016C000C434000880B584B000AFFEF739FF00F0E5
:1016D000F3F900F00DFA00F0AFF9FEF715FEFFF791
:1016E00067F80023FB600AE001214FF09040FFF70C
:1016F0001AFE0A20FEF73CFEFB680133FB60FB6824
:101700000A2BF1DD0420FFF793FC0020FFF7CEF950
:101710000023FB720A23BB72012280210020FFF705
:101720002DFD00233B810020FEF75AFE0E48FEF7F8
:10173000CDFE0020FFF7BAF90A23FB710A23BB7123
:1017400000237B7150233B71282000F07FF84FF479
:10175000FA60FEF70DFE782000F078F84FF4FA609A
:10176000FEF706FEF0E700BF382C000890B585B004
:1017700004AF144B1B7898B2134B1B789AB2134BDF
:101780001B789BB2134499B20F4B1B78104AA2FBF3
:1017900003231B09DBB21A4613461B0113440D4AEF
:1017A0009C180D4B002202924FF6FF7201925A686C
:1017B00000921B682246FFF7C3F800BF0437BD46FE
:1017C00090BD00BF13000020AD01002012000020DA
:1017D000CDCCCCCC9C0000200000002090B585B082
:1017E00004AF144B1B7898B2134B1B789AB2134B6F
:1017F0001B789BB2134499B20F4B1B78104AA2FB83
:1018000003231B09DBB21A4613461B0113440D4A7E
:101810009C180D4B002202924FF4784201925A68B4
:1018200000921B682246FFF78BF800BF0437BD46C5
:1018300090BD00BF13000020AD0100201200002069
:10184000CDCCCCCC140000200000002080B58CB0A2
:1018500002AF0346FB711423FB730123BB73002308
:10186000BB6000237B62624B1B78FA799A425DD39E
:101870005F4B1B783B6245E03B6A19B24FF6E07361
:10188000019305230093142380220020FFF7E1F940
:10189000BB7B1846FEF76CFD0123FB7700237B62C0
:1018A0001AE07A6A3B6A9A420DD13B6ADAB2504B2F
:1018B0001A70FFF75BFFBB7B1846FEF759FDFB7FF5
:1018C0000133FB7705E07B6ADAB2494B1A70FFF708
:1018D00085FF7B6A14337B62464B1B78C3F1A00300
:1018E0007A6A9A42DDDD3B6A19B20023019305232F
:1018F0000093142380220020FFF7ABF9FB7B3A6AA8
:1019000013443B62FB793A6A9A42B5DDFB7919B21E
:101910004FF6E073019305230093142380220020E7
:10192000FFF797F9324AFB7913705CE0304B1B7874
:10193000BB6145E0BB6919B24FF6E0730193052323
:101940000093142380220020FFF783F9BB7B184605
:10195000FEF70EFD0123FB7500233B611AE03A6997
:10196000BB699A420DD1BB69DAB2214B1A70FFF7FD
:10197000FDFEBB7B1846FEF7FBFCFB7D0133FB75D0
:1019800005E03B69DAB21A4B1A70FFF727FF3B6993
:1019900014333B61174B1B78C3F1A0033A699A4299
:1019A000DDDDBB6919B200230193052300931423E5
:1019B00080220020FFF74DF9FB7BBA69D31ABB6187
:1019C000FB79BA699A42B5DAFB7919B24FF6E0733E
:1019D000019305230093142380220020FFF739F997
:1019E000034AFB79137000BF2837BD4680BD00BF96
:1019F000AD0100201200002080B483B000AF4FF092
:101A000080431B697B604FF0804300221A617B6832
:101A100003F00203002B14BF01230023FB707B683B
:101A200003F00403002B14BF01230023BB7000BF8D
:101A30000C37BD4680BC704780B586B000AF022031
:101A4000FFF74CFCE0210C48FFF760FC3B461846D2
:101A500000F0DAFB01237B600023FB60E0233B60A6
:101A60000023BB603B461946034800F05EFB00BF05
:101A70001837BD4680BD00BF0004004880B582B065
:101A800000AF786039603A6800210948FFF778FDB7
:101A90007B681A4600210648FFF796FD054B1B6838
:101AA000044A43F00103136000BF0837BD4680BD00
:101AB000000002400800024080B586B000AF01205F
:101AC000FFF70CFC3B46184600F09EFB01237B60B1
:101AD0000023FB6001233B600323BB603B461946A8
:101AE0004FF0904000F021FB00BF1837BD4680BD8D
:101AF00080B590B000AF404BDB6C3F4A43F0010330
:101B0000D3643D4B1B6E3C4A43F480531366042060
:101B1000FFF7CCFB0120FFF7C9FB07F128031846AC
:101B200000F072FBA023BB6202233B630223FB6233
:101B30000523FB6307F1280319464FF0904000F09E
:101B4000F4FA3B46184600F0F0FB4FF482737B60DA
:101B50004FF440433B601823BB614FF400737B613B
:101B60004FF4E063BB603B461946244800F089FB14
:101B70002248FFF7F7FB2148FFF7E5FB0B22002186
:101B80001F48FFF755FD102200211D48FFF7FAFB03
:101B9000002200211A48FFF7CFFC2022002118481C
:101BA000FFF716FC002200211548FFF735FC8022C4
:101BB00000211348FFF754FC002200211048FFF7D2
:101BC00073FC002200210E48FFF792FC0B2200213B
:101BD0000B48FFF7D5FC0B4A00210948FFF70EFD23
:101BE00000210748FFF74EFD0B20FFF743FB00BF26
:101BF0004037BD4680BD00BF0010024000300140AC
:101C0000000002400C30014080B400AF074B1B685D
:101C1000064A23F001031360054B5B68044A43F056
:101C20000203536000BFBD4680BC704708000240FD
:101C30000000024080B400AF034B4FF000629A6096
:101C400000BFBD4680BC704700ED00E080B487B0A7
:101C500000AF2E4B9B6803F00C030C2B0ED00C2B0B
:101C60003ED8042B02D0082B04D039E0284B294A57
:101C70001A6036E0264B284A1A6032E0234BDB68B4
:101C800003F003033B61214BDB681B0903F00F03E7
:101C90000133FB603B69022B05D11E4AFB68B2FB96
:101CA000F3F37B6104E01C4AFB68B2FBF3F37B6156
:101CB000164BDB681B0A03F07F027B6902FB03F310
:101CC0007B61124BDB685B0E03F0030301335B00A7
:101CD000BB607A69BB68B2FBF3F30D4A136000E0A6
:101CE00000BF0A4B9B681B0903F00F030B4AD35C30
:101CF0007B60074B1A687B6822FA03F3044A13607F
:101D000000BF1C37BD4680BC704700BF00100240BA
:101D1000240100200024F40000127A00CC340008D2
:101D2000FFBE704700BFFFBE704700BFFFBE7047D9
:101D300000BFFFBE704700BFFFBE704700BFFFBEC1
:101D4000704700BFFFBE704700BFFFBE704700BFB7
:101D5000FFBE704700BFFFBE704700BFFFBE7047A9
:101D600000BFFFBE704700BFFFBE704700BFFFBE91
:101D7000704700BFFFBE704700BFFFBE704700BF87
:101D8000FFBE704700BFFFBE704700BFFFBE704779
:101D900000BFFFBE704700BFFFBE704700BFFFBE61
:101DA000704700BFFFBE704700BFFFBE704700BF57
:101DB000FFBE704700BFFFBE704700BFFFBE704749
:101DC00000BFFFBE704700BFFFBE704700BFFFBE31
:101DD000704700BFFFBE704700BFFFBE704700BF27
:101DE000FFBE704700BFFFBE704700BFFFBE704719
:101DF00000BF00BFFFBE704700BFFFBE704700BFFF
:101E0000FFBE704700BFFFBE704700BFFFBE7047F8
:101E100000BFFFBE704700BFFFBE704700BFFFBEE0
:101E2000704700BFFFBE704700BFFFBE704700BFD6
:101E3000FFBE704700BFFFBE704700BFFFBE7047C8
:101E400000BFFFBE704700BFFFBE704700BFFFBEB0
:101E5000704700BFFFBE704700BFFFBE704700BFA6
:101E6000FFBE704700BFFFBE704700BFFFBE704798
:101E700000BFFFBE704700BFFFBE704700BFFFBE80
:101E8000704700BFFFBE704700BFFFBE704700BF76
:101E9000FFBE704700BFFFBE704700BFFFBE704768
:101EA00000BFFFBE704700BFFFBE704700BFFFBE50
:101EB000704700BFFFBE704700BFFFBE704700BF46
:101EC000FFBE704700BFFFBE704700BFFFBE704738
:101ED00000BFFFBE704700BFFFBE704700BFFFBE20
:101EE000704700BF0C4D0D4C03E02B682360043598
:101EF00004340B4B9C42F8D10A4C02E000232360CF
:101F00000434094B9C42F9D1FFF794FE00F036FAF5
:101F1000FFF7D8FBFEE700BF3035000800000020C7
:101F20008C0100208C010020CC01002080B489B0FD
:101F300000AFF860B9607A60FB681A68BB687B61C3
:101F40007B6993FAA3F33B613B69B3FA83F3DBB29A
:101F50005B00032101FA03F3DB431A40BB68FB611A
:101F6000FB6993FAA3F3BB61BB69B3FA83F3DBB2FA
:101F70005B00796801FA03F31A43FB681A6000BF3B
:101F80002437BD4680BC704780B485B000AFF86090
:101F9000B9607A60FB685A68BB68DB431A40BB686B
:101FA000796801FB03F31A43FB685A6000BF1437DA
:101FB000BD4680BC704780B489B000AFF860B9609E
:101FC0007A60FB689A68BB687B617B6993FAA3F3CC
:101FD0003B613B69B3FA83F3DBB25B00032101FA97
:101FE00003F3DB431A40BB68FB61FB6993FAA3F37D
:101FF000BB61BB69B3FA83F3DBB25B00796801FABA
:1020000003F31A43FB689A6000BF2437BD4680BCC7
:10201000704780B489B000AFF860B9607A60FB683F
:10202000DA68BB687B617B6993FAA3F33B613B6928
:10203000B3FA83F3DBB25B00032101FA03F3DB4362
:102040001A40BB68FB61FB6993FAA3F3BB61BB69F0
:10205000B3FA83F3DBB25B00796801FA03F31A4346
:10206000FB68DA6000BF2437BD4680BC704780B48F
:1020700089B000AFF860B9607A60FB681A6ABB6823
:102080007B617B6993FAA3F33B613B69B3FA83F30A
:10209000DBB29B000F2101FA03F3DB431A40BB685C
:1020A000FB61FB6993FAA3F3BB61BB69B3FA83F3EA
:1020B000DBB29B00796801FA03F31A43FB681A62EA
:1020C00000BF2437BD4680BC704780B489B000AFE4
:1020D000F860B9607A60FB685A6ABB681B0A7B616A
:1020E0007B6993FAA3F33B613B69B3FA83F3DBB2F9
:1020F0009B000F2101FA03F3DB431A40BB681B0A64
:10210000FB61FB6993FAA3F3BB61BB69B3FA83F389
:10211000DBB29B00796801FA03F31A43FB685A6249
:1021200000BF2437BD4680BC704780B586B000AF85
:10213000786039603B681B68FB60FB6893FAA3F327
:10214000BB60BB68B3FA83F3DBB27B6140E03B6802
:102150001A6801217B6901FA03F313403B613B6973
:10216000002B32D03B685B681A4639697868FFF704
:10217000DDFE3B685B68012B03D03B685B68022B8C
:1021800006D13B689B681A4639697868FFF713FFE8
:102190003B681B691A4639697868FFF73AFF3B6864
:1021A0005B68022B11D13B69FF2B07D83B685B6949
:1021B0001A4639697868FFF75AFF06E03B685B69A1
:1021C0001A4639697868FFF780FF7B6901337B61C4
:1021D0003B681A687B6922FA03F3002BB7D13B688E
:1021E0005B68012B03D03B685B68022B07D13B681F
:1021F00019683B68DB681A467868FFF7C5FE00235C
:1022000018461837BD4680BD80B483B000AF7860F3
:102210007B684FF6FF721A607B6803225A607B6806
:1022200000229A607B680022DA607B6800221A61D3
:102230007B6800225A6100BF0C37BD4680BC7047E6
:1022400080B483B000AF78607B681B6803F0400304
:10225000402B01D1012300E0002318460C37BD4676
:1022600080BC704780B483B000AF786039603B6851
:102270009BB21A467B681A6100BF0C37BD4680BC12
:10228000704780B584B000AF786039600123FB737C
:102290007868FFF7D5FF0346002B3BD17B681B68AE
:1022A00023F47F4323F0BF033A6811683A68526809
:1022B00011433A68D26811433A68126911433A6887
:1022C000526911433A68926911433A68D2691143DD
:1022D0003A68126A0A431A437B681A607B685B6833
:1022E00023F4706323F004033A6891683A685269F2
:1022F000120C0A431A437B685A603B681B6AB3F5A9
:10230000005F05D13B685B6A19467868FFF7AAFF52
:102310000023FB737B68DB6923F400627B68DA616E
:10232000FB7B18461037BD4680BD80B483B000AF3C
:1023300078607B6800221A607B6800225A607B68A4
:102340004FF4E0629A607B680022DA607B680022CA
:102350001A617B6800225A617B6800229A617B685F
:102360000022DA617B6800221A627B6807225A62C7
:1023700000BF0C37BD4680BC7047000070B50D4DE6
:102380000D4C641BA4100026A64209D10B4D0C4C29
:1023900001F0BEF8641BA4100026A64205D170BD52
:1023A00055F8043B98470136EEE755F8043B98474B
:1023B0000136F2E7283500082835000828350008DE
:1023C0002C35000800B59BB0009104916FF00041DE
:1023D0000591029105490391694600F06FF8009B51
:1023E00000221A701BB05DF804FB00BF0802FFFF5B
:1023F00013460A46014602480068FFF7E3BF00BFE4
:10240000280100202DE9F0478E689E4282460C4646
:1024100090461F4638D88A8912F4906F32D02568CA
:102420000969A5EB0109656905EB450505EBD5755E
:1024300001334B446D109D4238BF1D46530531D5C5
:10244000294600F045FB064650B90C23CAF8003077
:10245000A38943F04003A3814FF0FF30BDE8F0872C
:1024600021694A4600F0BEFAA38923F4906343F041
:102470008003A381266165614E44A5EB09052660B2
:10248000A5603E46BE4200D93E46324620684146DF
:1024900000F0B6FAA36822689B1B3244A360226056
:1024A0000020DBE72A4600F06DFB06460028E1D15C
:1024B0002169504600F0BEFAC7E700002DE9F04F51
:1024C00098468B891B069DB007460D4614460ED5CF
:1024D0000B6963B9402100F0FBFA2860286120B93C
:1024E0000C233B604FF0FF30D1E040236B610023B1
:1024F000099320238DF82930CDF80C803023DFF8A4
:10250000A8818DF82A304FF0010923469A4613F826
:10251000012B0AB1252AF9D1BAEB040B0BD05B468B
:10252000224629463846FFF76DFF013000F0AA80A9
:10253000099A5A4409929AF80030002B00F0A280C0
:1025400000234FF0FF32CDE905230AF1010A04937D
:1025500007938DF853301A935446052214F8011B43
:102560005148FDF765FE049AD8B9D00644BF202330
:102570008DF85330110744BF2B238DF853309AF850
:1025800000302A2B15D0079A544600204FF00A0C31
:10259000214611F8013B303B092B4ED9B0B10792CF
:1025A00014E0A0EB080309FA03F313430493A246D3
:1025B000D2E7039B191D1B680391002BBBBF5B4235
:1025C00042F0020207930793B8BF049223782E2BA0
:1025D0000CD163782A2B35D1039B1A1D1B680392FB
:1025E000002BB8BF4FF0FF3302340593DFF8C8A0CB
:1025F000217803225046FDF71BFE40B14023A0EB9B
:102600000A0003FA00F0049B03430134049314F816
:10261000011B26488DF828100622FDF709FE002828
:1026200038D0234B1BBB039B073323F0070308332E
:102630000393099B3344099367E70CFB02320C4672
:102640000120A5E700230134059319464FF00A0C39
:10265000204610F8012B303A092A03D9002BC5D0A7
:102660000591C3E70CFB012104460123F0E703AB0E
:1026700000932A460F4B04A93846AFF30080421C52
:102680000646D6D1AB895B063FF52CAF09981DB045
:10269000BDE8F08F03AB00932A46064B04A93846E9
:1026A00000F07AF8EBE700BFDC340008E6340008FD
:1026B0000000000005240008E23400082DE9F0477E
:1026C000164699468A680B69DDF820809342B8BFA8
:1026D0001346336091F8432007460C460AB1013394
:1026E00033602368990642BF33680233336025683C
:1026F00015F0060506D104F1190AE36832689B1A41
:10270000AB4226DC94F84320131E226818BF012335
:1027100092062BD404F1430249463846C0470130A3
:102720001ED02368E568326803F00603042B08BF57
:10273000AD1AA36822690CBF25EAE575002593420E
:10274000C4BF9B1AED1800261A34B5421AD10020D6
:1027500008E00123524649463846C047013003D1BC
:102760004FF0FF30BDE8F0870135C6E7E1185A1C8D
:10277000302081F84300224494F8451082F8431039
:102780000233C7E70123224649463846C047013095
:10279000E6D00136D9E700002DE9FF470C46914607
:1027A000277E0C99782F80469A4604F1430207D879
:1027B000622F0AD8002F00F0D880582F00F0A38095
:1027C00004F1420684F842703AE0A7F16303152B46
:1027D000F6D801A050F823F0312800084528000859
:1027E000C1270008C1270008C1270008C127000829
:1027F00045280008C1270008C1270008C127000894
:10280000C12700085129000875280008332900084D
:10281000C1270008C127000873290008C127000844
:1028200075280008C1270008C12700083B290008B7
:102830000B681A1D1B680A6004F1420684F84230D6
:102840000123A3E0256808682E0600F104030AD5D9
:1028500005680B60002D03DA2D236D4284F84330A8
:102860005E480A2319E015F0400F05680B6018BF99
:102870002DB2EFE70B682568181D0860280601D502
:102880001D6802E06906FBD51D8854486F2F0CBFF8
:1028900008230A23002184F843106668A660002EEE
:1028A000A2BF216821F0040121600DB9002E4DD096
:1028B0001646B5FBF3F103FB1157C75D06F8017D22
:1028C0002F46BB420D46F4D9082B0BD12368DF07F6
:1028D00008D5236961689942DEBF302306F8013CC0
:1028E00006F1FF36921B2261CDF800A04B4603AAE9
:1028F00021464046FFF7E2FE01304CD14FF0FF3059
:1029000004B0BDE8F087354884F8457023680E6848
:102910001F0656F8045B0E6014D5D90744BF43F078
:10292000200323601DB9236823F0200323601023B4
:10293000B0E7236843F0200323607823284884F815
:102940004530E3E75E0648BFADB2E6E71646BBE7B3
:102950000B68266860691D1D0D6035061B6801D572
:10296000186002E07106FBD518800023236116462B
:10297000BAE70B681A1D0A601E68626800213046BB
:10298000FDF756FC08B1801B60606368236100237B
:1029900084F84330A8E72369324649464046D04789
:1029A0000130ABD023689B0713D4E068039B9842A7
:1029B000B8BF1846A4E70123324649464046D047EF
:1029C00001309BD00135E36803995B1AAB42F2DC1E
:1029D000EBE7002504F11906F5E700BFED34000828
:1029E000FE3400080A44914200F1FF3300D17047E1
:1029F00010B511F8014B03F8014F9142F9D110BD08
:102A0000884210B501EB020402D98442234607D85C
:102A1000431EA14208D011F8012B03F8012FF8E75B
:102A2000024401468A4200D110BD13F8014D02F85C
:102A3000014DF7E738B50546002945D051F8043C6B
:102A40000C1F002BB8BFE41800F0D2F81F4A13681F
:102A5000104633B9636014602846BDE8384000F082
:102A6000CDB8A3420BD921686218934204BF1A68FB
:102A70005B68636004BF521822600460ECE71A468A
:102A80005B680BB1A342FAD911685018A0420BD170
:102A900020680144501883421160DDD118685B68DA
:102AA000536001441160D7E702D90C232B60D3E7B0
:102AB000206821188B4204BF19685B68636004BFFB
:102AC000091821605460C7E738BD00BFB00100207D
:102AD000F8B5CD1C25F0030508350C2D38BF0C25A5
:102AE000002D064601DBA94203D90C2333600020E8
:102AF000F8BD00F07DF821490A6814469CB9204FC2
:102B00003B6823B92146304600F062F83860294618
:102B1000304600F05DF8431C23D10C23336030466F
:102B200000F06CF8E3E723685B1B17D40B2B03D989
:102B300023601C44256004E06368A2420CBF0B6064
:102B40005360304600F05AF804F10B00231D20F0CA
:102B50000700C21ACCD01B1AA350C9E722466468EA
:102B6000CCE7C41C24F00304A042E3D0211A304671
:102B700000F02EF80130DDD1CFE700BFB00100201A
:102B8000B4010020F8B5074614460E4621B9BDE849
:102B9000F8401146FFF79CBF22B9FFF74BFF2546CF
:102BA0002846F8BD00F030F8A0420FD22146384642
:102BB000FFF78EFF05460028F2D031462246FFF788
:102BC00011FF31463846FFF735FFE9E73546E7E7BD
:102BD00038B5064D0023044608462B6000F01EF869
:102BE000431C02D12B6803B1236038BDBC01002017
:102BF000014800F011B800BFC4010020014800F0F6
:102C00000CB800BFC401002051F8043C181F002B71
:102C1000BCBF0B58C018704770477047044A05493D
:102C20001368002B08BF0B46184410601846704705
:102C3000B8010020CC0100205541525420696E6932
:102C400074210000466F6E745F377831302C20722B
:102C50006564206F6E20626C61636B2C206C6F72F8
:102C6000656D20697073756D20646F6C6F72207371
:102C7000697420616D657400466F6E745F313178E0
:102C800031382C20677265656E2C206C6F72656D13
:102C900020697073756D0000466F6E745F31367811
:102CA00032360000424C41434B000000424C554537
:102CB0000000000052454400475245454E000000C8
:102CC0004359414E000000004D4147454E544100DC
:102CD00059454C4C4F570000574849544500000097
:102CE00000000000000000000000000000000000E4
:102CF0000000000000100010001000100010001074
:102D0000000000100000000000280028002800003B
:102D1000000000000000000000000000002400246B
:102D2000007C00240048007C0048004800000000AF
:102D3000003800540050003800140054005400388B
:102D400000100000002000540058003000280054FB
:102D500000140008000000000010002800280010E7
:102D6000003400480048003400000000001000104B
:102D70000010000000000000000000000000000043
:102D8000000800100020002000200020002000206B
:102D900000100008002000100008000800080008CB
:102DA0000008000800100020001000380010002863
:102DB0000000000000000000000000000000000013
:102DC00000100010007C0010001000000000000047
:102DD00000000000000000000000000000000010E3
:102DE000001000100000000000000000000000388B
:102DF00000000000000000000000000000000000D3
:102E000000000000000000100000000000080008A2
:102E10000010001000100010002000200000000032
:102E2000003800440044005400440044004400388A
:102E300000000000001000300050001000100010D2
:102E4000001000100000000000380044004400049E
:102E5000000800100020007C000000000038004442
:102E600000040018000400040044003800000000C2
:102E700000080018002800280048007C000800080E
:102E800000000000007C00400040007800040004C6
:102E90000044003800000000003800440040007882
:102EA000004400440044003800000000007C00049E
:102EB000000800100010002000200020000000008A
:102EC0000038004400440038004400440044003806
:102ED000000000000038004400440044003C0004AE
:102EE0000044003800000000000000000010000056
:102EF00000000000000000100000000000000000C2
:102F00000000001000000000000000100010001081
:102F100000000000000C003000400030000C0000F9
:102F200000000000000000000000007C0000007CA9
:102F30000000000000000000000000000060001819
:102F40000004001800600000000000000038004489
:102F50000004000800100010000000100000000035
:102F600000380044004C0054005C00400040003831
:102F70000000000000100028002800280028007C25
:102F80000044004400000000007800440044007841
:102F90000044004400440078000000000038004471
:102FA00000400040004000400044003800000000A5
:102FB0000070004800440044004400440048007091
:102FC00000000000007C00400040007C0040004009
:102FD0000040007C00000000007C004000400078C1
:102FE0000040004000400040000000000038004465
:102FF00000400040005C0044004400380000000035
:10300000004400440044007C004400440044004468
:103010000000000000380010001000100010001028
:103020000010003800000000000400040004000448
:103030000004000400440038000000000044004880
:1030400000500060005000480048004400000000AC
:103050000040004000400040004000400040007C34
:10306000000000000044006C006C00540044004468
:103070000044004400000000004400640064005468
:103080000054004C004C0044000000000038004494
:1030900000440044004400440044003800000000A4
:1030A00000780044004400440078004000400040A4
:1030B0000000000000380044004400440044004484
:1030C000005400380004000000780044004400442C
:1030D0000078004800480044000000000038004428
:1030E00000400030000800040044003800000000E8
:1030F000007C0010001000100010001000100010E4
:103100000000000000440044004400440044004427
:10311000004400380000000000440044004400283F
:1031200000280028001000100000000000440044A7
:10313000005400540054006C0028002800000000D7
:103140000044002800280010001000280028004437
:103150000000000000440044002800280010001077
:103160000010001000000000007C000400080010A7
:10317000001000200040007C00000000001800103B
:1031800000100010001000100010001000100018B7
:10319000002000200010001000100010000800089F
:1031A000000000000030001000100010001000109F
:1031B000001000100010003000100028002800440B
:1031C00000000000000000000000000000000000FF
:1031D000000000000000000000000000000000FEF1
:1031E00000200010000000000000000000000000AF
:1031F000000000000000000000380044003C0044D3
:10320000004C003400000000004000400058006402
:10321000004400440064005800000000000000006A
:103220000038004400400040004400380000000026
:10323000000400040034004C00440044004C0034FE
:10324000000000000000000000380044007C004046
:103250000044003800000000000C0010007C00104A
:10326000001000100010001000000000000000001E
:103270000034004C00440044004C0034000400784A
:1032800000400040005800640044004400440044F2
:10329000000000000010000000700010001000107E
:1032A000001000100000000000100000007000106E
:1032B0000010001000100010001000E0004000405E
:1032C000004800500060005000480044000000002A
:1032D000007000100010001000100010001000100E
:1032E000000000000000000000780054005400546A
:1032F000005400540000000000000000005800646A
:1033000000440044004400440000000000000000AD
:10331000003800440044004400440038000000002D
:10332000000000000058006400440044006400589D
:1033300000400040000000000034004C0044004405
:10334000004C003400040004000000000058006439
:10335000004000400040004000000000000000006D
:10336000003800440030000800440038000000002D
:1033700000200020007800200020002000200018FD
:10338000000000000000000000440044004400442D
:10339000004C003400000000000000000044004425
:1033A0000028002800280010000000000000000095
:1033B000005400540054006C002800280000000055
:1033C0000000000000440028001000100028004405
:1033D0000000000000000000004400440028002815
:1033E000001000100010006000000000007C0008C9
:1033F000001000200040007C0000000000180010B9
:103400000010001000200020001000100010001814
:10341000001000100010001000100010001000102C
:10342000001000100030001000100010000800080C
:1034300000100010001000300000000000000074B8
:10344000004C000000000000000000000F0180960A
:103450001180FFB103012C2DB203012C2DB3060105
:103460002C2D012C2DB40107C003A20284C101C57B
:10347000C2020A00C3028A2AC4028AEEC5010E20D3
:10348000003601603A010500022A040000007F2B8B
:10349000040000007F00000004E010021C07123747
:1034A00032292D29252B3900010310E110031D07B6
:1034B000062E2C292D2E2E373F0000021013800AD5
:1034C00029806400081C3044586C00000000000093
:1034D000000000000102030406070809232D302B19
:1034E0002000686C4C006566674546470030313205
:1034F000333435363738394142434445460030315C
:1035000032333435363738396162636465660000BA
:10351000F8B500BFF8BC08BC9E467047F8B500BFC0
:08352000F8BC08BC9E46704790
:043528000502000890
:04352C00E1010008B1
:10353000070A0000E02C000840802000A000800066
:103540000201050720204D656E75204974656D20C8
:10355000312000000020204D656E75204974656D96
:1035600020322000000020204D656E7520497465D2
:103570006D20332000000020204D656E75204974B9
:10358000656D20342000000020204D656E752049B7
:1035900074656D20352000000020204D656E75207B
:1035A0004974656D20362000000020204D656E7541
:1035B000204974656D20372000000020204D656E85
:1035C00075204974656D2038200000004D656E75CA
:1035D000204974656D2031203C202000004D656E2F
:1035E00075204974656D2032203C202000004D6517
:1035F0006E75204974656D2033203C202000004DFD
:10360000656E75204974656D2034203C20200000D3
:103610004D656E75204974656D2035203C20200075
:10362000004D656E75204974656D2036203C202064
:1036300000004D656E75204974656D2037203C2073
:103640002000004D656E75204974656D2038203C62
:10365000202000000024F4002C01002000000000C5
:10366000000000000000000000000000000000005A
:10367000000000000000000000000000000000004A
:10368000000000000000000000000000000000003A
:10369000000000000000000000000000000000002A
:1036A000000000000000000000000000000000001A
:0C36B0000000000000000000000000000E
:0400000508001EE5EC
:00000001FF
